S01700002E2E2F70315F64617368626F6172642E73726563DA
S11300000030002091040000F5040000F904000011
S113001000000000000000000000000000000000DC
S1130020000000000000000000000000FD040000CB
S113003000000000000000000105000005050000AC
S1130040090500000D05000011050000150500005C
S1130050F1040000F1040000F1040000F1040000C8
S1130060190500001D0500002105000025050000FC
S1130070290500002D05000031050000F1040000F1
S1130080F1040000F1040000F1040000F104000098
S1130090F1040000F1040000F53100003505000012
S11300A0F1040000F1040000F1040000F104000078
S11300B0F1040000F1040000F10400001932000012
S1130400FFFFFFFFFFFFFFFFFFFFFFFFFEFFFFFFF9
S1130410402292029A1A92467047C046174B002B0C
S113042000D1134B9D46FFF7F3FF00218B460F4687
S11304301348144A121A04F0D1FD0E4B002B00D0BD
S113044098470D4B002B00D0984700200021040052
S11304500D000D48002802D00C4800E000BF04F055
S1130460C5FD2000290003F011FA04F0A3FDC046E5
S11304700000080000000000000000000030002020
S113048010F0FF1F94F0FF1F0000000000000000A8
S113049072B60E480E4901600A6882F308880D4856
S11304A080470D490D4A0E4B9B1A03DD043BC85887
S11304B0D050FBDC0B490C4A521A03DD0020885053
S11304C0043AFCDA62B609488047000008ED00E00F
S11304D000000000E14300000C69000000F0FF1F71
S11304E010F0FF1F10F0FF1F94F0FF1F1D04000009
S11304F01148004711480047114800471148004778
S11305001148004711480047114800471148004767
S11305101148004711480047114800471148004757
S11305201148004711480047114800471148004747
S11305301148004711480047F1040000F504000089
S1130540F9040000FD040000010500000505000099
S1130550F1040000F1040000F1040000F1040000C3
S11305601126000031260000F1040000F10400000F
S1130570D10E0000D5120000F9120000F1040000B1
S11305800023C25C0133002AFBD1581E70470000CF
S1130590002243088B4274D303098B425FD3030ABE
S11305A08B4244D3030B8B4228D3030C8B420DD3D1
S11305B0FF22090212BA030C8B4202D3121209025F
S11305C065D0030B8B4219D300E0090AC30B8B429D
S11305D001D3CB03C01A5241830B8B4201D38B034B
S11305E0C01A5241430B8B4201D34B03C01A5241F0
S11305F0030B8B4201D30B03C01A5241C30A8B4233
S113060001D3CB02C01A5241830A8B4201D38B021D
S1130610C01A5241430A8B4201D34B02C01A5241C1
S1130620030A8B4201D30B02C01A5241CDD2C30933
S11306308B4201D3CB01C01A524183098B4201D3AF
S11306408B01C01A524143098B4201D34B01C01A9A
S1130650524103098B4201D30B01C01A5241C30812
S11306608B4201D3CB00C01A524183088B4201D381
S11306708B00C01A524143088B4201D34B00C01A6D
S11306805241411A00D20146524110467047FFE7D9
S113069001B5002000F0F0F802BDC0460029F7D0F3
S11306A076E7704703460B437FD4002243088B420E
S11306B074D303098B425FD3030A8B4244D3030BE5
S11306C08B4228D3030C8B420DD3FF22090212BAAA
S11306D0030C8B4202D31212090265D0030B8B4226
S11306E019D300E0090AC30B8B4201D3CB03C01A10
S11306F05241830B8B4201D38B03C01A5241430BEB
S11307008B4201D34B03C01A5241030B8B4201D3DA
S11307100B03C01A5241C30A8B4201D3CB02C01A45
S11307205241830A8B4201D38B02C01A5241430ABD
S11307308B4201D34B02C01A5241030A8B4201D3AC
S11307400B02C01A5241CDD2C3098B4201D3CB0153
S1130750C01A524183098B4201D38B01C01A524102
S113076043098B4201D34B01C01A524103098B4206
S113077001D30B01C01A5241C3088B4201D3CB00F1
S1130780C01A524183088B4201D38B00C01A5241D4
S113079043088B4201D34B00C01A5241411A00D284
S11307A001465241104670475DE0CA0F00D04942ED
S11307B0031000D34042534000229C4603098B425D
S11307C02DD3030A8B4212D3FC22890112BA030AE5
S11307D08B420CD3890192118B4208D38901921167
S11307E08B4204D389013AD0921100E08909C309EC
S11307F08B4201D3CB01C01A524183098B4201D3EE
S11308008B01C01A524143098B4201D34B01C01AD8
S1130810524103098B4201D30B01C01A5241C30850
S11308208B4201D3CB00C01A524183088B4201D3BF
S11308308B00C01A5241D9D243088B4201D34B00DA
S1130840C01A5241411A00D20146634652415B101C
S1130850104601D34042002B00D5494270476346FD
S11308605B1000D3404201B5002000F005F802BD42
S11308700029F8D016E770477047C046002B11D105
S1130880002A0FD1002900D1002802D00021C94339
S1130890080007B4024802A14018029003BDC046F4
S11308A0D9FFFFFF03B4684601B5029804F0C2FB08
S11308B0019B9E4602B00CBC7047C0461C2101231C
S11308C01B04984201D3000C10391B0A984201D32F
S11308D0000A08391B09984201D30009043902A20D
S11308E0105C40187047C046040302020101010174
S11308F0000000000000000010B5002903D1FFF73C
S1130900DDFF203002E00800FFF7D8FF10BDC0462D
S11309100448054B10B5834203D0044B002B00D090
S1130920984710BD10F0FF1F10F0FF1F00000000DB
S113093006480749091A8B10C90FC91810B5491080
S113094003D0044B002B00D0984710BD10F0FF1FBC
S113095010F0FF1F0000000010B5074C2378002B97
S113096009D1FFF7D5FF054B002B02D0044800E066
S113097000BF0123237010BD10F0FF1F0000000012
S1130980E4680000054B10B5002B03D0044905486A
S113099000E000BFFFF7CCFF10BDC0460000000020
S11309A014F0FF1FE468000080B584B000AF7860E5
S11309B07B681B0C084A94466344FB60FB68196817
S11309C07B681B041B0C01229A40FB680A431A60D3
S11309D0C046BD4604B080BD0070044080B584B0FC
S11309E000AF78600023FB6006E00D4A7B68934209
S11309F006D0FB680133FB60FB68002BF5D000E0F8
S1130A00C046FB68002B05D0064B074A07489021D7
S1130A1003F050F9FB681800BD4604B080BDC04621
S1130A2000A006404C570000F0630000705700001F
S1130A30B0B58CB000AFF860B9607A60BB68002BC9
S1130A4005D18F4B8F4A9048D72103F033F9BB6807
S1130A501B68002B05D18D4B8A4A8B48D82103F0A3
S1130A6029F92C23FB1800221A8000237B62BB681F
S1130A701B68BB6104233B625AE0BB681B683A6A8B
S1130A80534319007868FFF783FD03001A002A21F5
S1130A907B181A800A00BB181B88002B02D1BB18D4
S1130AA001221A802A257B191B883A6A53431900AC
S1130AB07868FFF76DFD03007B61BB681B687A698A
S1130AC0D31AFB61BB681C687B191B8801331A00AD
S1130AD03B6A534319007868FFF75AFD0300E31A91
S1130AE0FA699A4213D9BB681C687B191B880133C5
S1130AF01A003B6A534319007868FFF749FD030065
S1130B00E31AFB617B191A887B1901321A80FA698E
S1130B10BB699A4209D8FB69BB613B6A7B622C239F
S1130B20FB182A22BA1812881A803B6A01333B62E6
S1130B303B6A202BA1D9BB681B6864211800FFF70E
S1130B4027FD03001A0013005B009B18BA699A4240
S1130B5001D94F4B90E0FB681800FFF73FFF4D4B66
S1130B601800FFF721FFFB68DB78DBB20C2293430C
S1130B70DAB2FB68DA707B6A032B0AD97B6A072B2B
S1130B8007D8FB68DB7ADBB202221343DAB2FB68D4
S1130B90DA72FB689B7ADBB21F229343DAB27B6A78
S1130BA0DBB2013BDBB21343DAB2FB689A72FB6837
S1130BB09B7ADBB21F229343DAB22C217B181B8869
S1130BC01B0A9BB2DBB21343DAB2FB681A707B18C0
S1130BD01B88DAB2FB685A70FB689B78DAB22F2064
S1130BE03B1813218A431A70BB681B79002B09D068
S1130BF0BB681A793B181B781343DAB23B181021EF
S1130C000A431A70FB682F203A1812789A70FB680E
S1130C101B78DBB220229343DAB2FB681A70FB68BC
S1130C201B78DAB2BB685B795B01DBB220210B4035
S1130C30DBB21343DAB2FB681A703B18FA68D27855
S1130C401A70BB689B79002B05D03B183A181278B0
S1130C5008210A431A70BB68DB79002B06D02F22C7
S1130C60BB18BA18127804210A431A70FB682F22A1
S1130C70BA181278DA7000231800BD460CB0B0BD63
S1130C80E05700000464000070570000E8570000BB
S1130C90B50400000A00341080B582B000AF78605B
S1130CA07B68002B06D10D4B0D4A5621FF310D48B0
S1130CB003F000F87B68E12252021A607B6800228C
S1130CC01A717B6800225A717B6800229A717B68D2
S1130CD00022DA71C046BD4602B080BDE057000074
S1130CE0106400007057000080B584B000AF7860D5
S1130CF07B681B79DBB21A007B685B79DBB21B0271
S1130D001343FB60FB681800BD4604B080BD0000BF
S1130D1080B584B000AF786039600B217B18002265
S1130D201A707B181B78DBB20133DAB27B181A70A5
S1130D303A6880231B02134006D07B6880225A71D4
S1130D403B68154A13403B603A688023DB0113403B
S1130D5006D07B6840225A713B68104A13403B60BE
S1130D603B681F2213400AD03B68DBB21F221340AA
S1130D70DAB27B681A713B681F2293433B603B687D
S1130D80002B02D0064BFB6001E00023FB60FB68F4
S1130D901800BD4604B080BDFF7FFFFFFFBFFFFF0B
S1130DA0B404000080B584B000AFF860B9607A6024
S1130DB0BB68002B12D10E4B0E4A0F490F4802F0AC
S1130DC079FFC046FB681B79DBB25BB2002BF9DA12
S1130DD0BB685A1CBA601A78FB68DA717B685A1EC1
S1130DE07A60002BEDD1C046C046BD4604B080BD3C
S1130DF0D857000028640000090200007057000062
S1130E0080B586B000AFF860B9607A60BB68002B2B
S1130E1047D1294B294A86218900294802F04AFFF3
S1130E20FB681800FFF760FF03007B617B69082201
S1130E30134007D0FB6808211800FFF769FF9723C8
S1130E40DB0034E07B690422134006D0FB680421F4
S1130E501800FFF75DFF1B4B29E07B69022213405A
S1130E6006D0FB6802211800FFF752FF164B1EE064
S1130E707B690122134006D0FB6801211800FFF7AB
S1130E8047FF124B13E0FB681B79DBB21A002023E7
S1130E901340C5D0BB685A1CBA60FA68D279D2B282
S1130EA01A707B685A1E7A60002BECD1002318005C
S1130EB0BD4606B080BDC046D85700003C64000063
S1130EC070570000B9040000BA040000BB0400001D
S1130ED080B500AF044B1A68044B1B680448190022
S1130EE09047C046BD4680BD30F0FF1F2CF0FF1F69
S1130EF000A0064080B584B000AF78607B681B0C0E
S1130F00084A94466344FB60FB6819687B681B04C9
S1130F101B0C01229A40FB680A431A60C046BD4676
S1130F2004B080BD0070044080B584B000AF786028
S1130F300323BB600023FB6009E00F4BFA689200B7
S1130F40D3587A689A4207D0FB680133FB60FA6889
S1130F50BB689A42F1D300E0C046FA68BB689A4283
S1130F6005D3064B064A0748A92102F0A3FEFB68F5
S1130F701800BD4604B080BD50640000485800000D
S1130F806864000064580000B0B586B000AFF86033
S1130F90B9607A60BB68002B05D1714B714A724805
S1130FA0D42102F087FEBB681B68002B05D16F4B70
S1130FB06C4A6D48D52102F07DFE16243B190022AF
S1130FC01A801523FB1800221A7000233B61BB68AA
S1130FD01B681B0119007868FFF7DAFA03001A008E
S1130FE03B191A803B191B88002B02D13B190122A3
S1130FF01A8016257B191B881B0119007868FFF7D6
S1131000C7FA03001A00BB681B68D31A3B61BB68AC
S11310101C687B191B8801331B0119007868FFF7D2
S1131020B7FA0300E31A3A699A4211D9BB681C68FB
S11310307B191B8801331B0119007868FFF7A8FA94
S11310400300E31A3B617B191A887B1901321A8069
S1131050BB681B6864211800FFF79AFA03001A00A2
S113106013005B009B183A699A4201D9404B72E025
S1131070FB681800FFF758FF02003E4B9200D3585C
S11310801800FFF737FFFB68DB78DBB20C229343D1
S1131090DAB2FB68DA70FB681B78DBB21F22934379
S11310A0DAB216217B181B881B0A9BB2DBB21343EE
S11310B0DAB2FB681A707B181B88DAB2FB685A70C4
S11310C0FB689B78DAB215203B1813218A431A7007
S11310D0BB681B79002B09D0BB681A793B181B78B5
S11310E01343DAB23B1810210A431A70FB68152027
S11310F03A1812789A70FB681B78DBB2202293436B
S1131100DAB2BB685B795B01DBB220210B40DBB256
S11311101343DAB2FB681A703B18FA68D2781A7073
S1131120BB689B79002B05D03B183A18127808212C
S11311300A431A70BB68DB79002B06D01522BB1852
S1131140BA18127804210A431A70FB681522BA18D7
S11311501278DA7000231800BD4606B0B0BDC04650
S1131160CC5800007C64000064580000D45800008F
S1131170F50300005C64000080B582B000AF7860C5
S11311807B68002B06D10D4B0D4A5E21FF310D48C3
S113119002F090FD7B68E12252021A607B68002213
S11311A01A717B6800225A717B6800229A717B68ED
S11311B00022DA71C046BD4602B080BDCC580000A2
S11311C0886400006458000080B584B000AF786083
S11311D07B681B79DBB21A007B685B79DBB21B028C
S11311E01343FB60FB681800BD4604B080BD80B5A6
S11311F084B000AFF860B9607A600CE0C046FB6868
S11312001B79DBB25BB2002BF9DABB685A1CBA60FB
S11312101A78FB68DA717B685A1E7A60002BEDD16C
S1131220C046C046BD4604B080BD000080B586B04F
S113123000AFF860B9607A60BB68002B33D11F4BF4
S11312401F4A8F2189001F4802F034FDFB681800F3
S1131250FFF7BAFF03007B617B690822134001D0CA
S1131260194B26E07B690422134001D0174B20E080
S11312707B690222134001D0154B1AE07B690122DD
S1131280134002D0FD239B0013E0FB681B79DBB203
S11312901A0020231340D9D0BB685A1CBA60FA68DC
S11312A0D279D2B21A707B685A1E7A60002BECD1C4
S11312B000231800BD4606B080BDC046FC5800009F
S11312C0A064000064580000F1030000F203000071
S11312D0F303000080B500AF044B1A68044B5B684D
S11312E0044819009047C046BD4680BD40F0FF1F2A
S11312F034F0FF1F00B0064080B500AF044B1A68FD
S1131300044B9B68044819009047C046BD4680BD05
S113131040F0FF1F34F0FF1F00C0064080B584B0CA
S113132000AF78607B681B0C084A94466344FB60FA
S1131330FB6819687B681B041B0C01229A40FB683C
S11313400A431A60C046BD4604B080BD0070044024
S113135080B584B000AF78600023FB6006E00D4ADE
S11313607B68934206D0FB680133FB60FB68002B6B
S1131370F5D000E0C046FB68002B05D0064B074AB9
S11313800748482102F096FCFB681800BD4604B0EB
S113139080BDC046007003403C590000B4640000A6
S11313A06059000080B582B000AF786039603B6856
S11313B0002B05D1154B164A16484F2102F07AFC32
S11313C07B681800FFF7C4FF134B1800FFF7A6FF54
S11313D07B681B68022293431A007B681A603B688F
S11313E01B78002B07D07B681B68012293431A00EB
S11313F07B681A6005E07B681B6801221A437B68DE
S11314001A60C046BD4602B080BDC046C059000047
S1131410C46400006059000017003C1080B584B01B
S113142000AFF860B960FB1D1A70FB1D1B78002B20
S113143005D10122BB689A40FB689A6004E001224E
S1131440BB689A40FB685A60C046BD4604B080BD84
S113145080B584B000AF78600023FB6009E00E4BD8
S1131460FA689200D3587A689A4206D0FB6801332E
S1131470FB60FB68042BF2D900E0C046FB68042B38
S113148005D9064B064A0748442102F013FCFB68C1
S11314901800BD4604B080BDE4640000C8590000D3
S11314A0F8640000EC59000080B584B000AFF86027
S11314B0B9607A607B68002B05D1144B144A154837
S11314C04B2102F0F7FB7B681B78002B0AD1FB68E9
S11314D05B690121BA6891400A00D2431A40FB6853
S11314E05A610FE07B685A78B968FB681800FFF707
S11314F095FFFB685A690121BB6899400B001A43A8
S1131500FB685A61C046BD4604B080BD4C5A000019
S11315100C650000EC59000080B584B000AF786021
S113152039607B681800FFF793FF02000F217B18D6
S11315301A707B181A78064B9200D358BB60BB68AC
S1131540A0213A685A50C046BD4604B080BDC0468A
S1131550D064000080B584B000AF78607B681B0C59
S1131560084A94466344FB60FB6819687B681B0463
S11315701B0C01229A40FB680A431A60C046BD4610
S113158004B080BD0070044080B584B000AF7860C2
S11315900323BB600023FB6009E00F4BFA68920051
S11315A0D3587A689A4207D0FB680133FB60FA6823
S11315B0BB689A42F1D300E0C046FA68BB689A421D
S11315C005D3064B064A07484E2102F073FBFB681D
S11315D01800BD4604B080BD1C650000785A0000A8
S11315E034650000945A000080B582B000AF786082
S11315F039603B68002B05D12E4B2F4A2F485521CB
S113160002F058FB7B681800FFF7BEFF02002C4B6A
S11316109200D3581800FFF79DFF3B681B781A000F
S113162007231A407B681A603B68DB785B01202241
S11316301A403B685B78590280239B000B401A4395
S11316403B685B7999048023DB020B401A433B68B7
S1131650DB79190480235B020B401A433B689B79B6
S1131660590480239B020B401A433B689B7819065C
S1131670F0231B050B401A437B6884215A503B68B6
S11316801B79002B08D07B6884229B58C0221A4304
S11316907B6884215A5008E07B6884229B58C022CE
S11316A093431A007B6884215A50C046BD4602B059
S11316B080BDC046F45A000044650000945A0000FE
S11316C02865000080B582B000AF78607B68002B8D
S11316D005D1114B114A1248852102F0EBFA7B68BF
S11316E000221A707B6800225A707B680022DA702C
S11316F07B6800221A717B6800225A717B68002281
S11317009A717B680022DA717B6800229A70C04665
S1131710BD4602B080BDC046F45A000050650000CA
S1131720945A000080B588B000AFF860B960190021
S1131730FB1D1A70BB1D0A1C1A70BB68002B05D157
S1131740754B764A7648A72102F0B4FABB6A002B9F
S113175005D1744B714A7248A82102F0ABFAFB1D03
S11317601B78002B05D1704B6C4A6D48A92102F0FF
S1131770A1FAFB6A002B05D16C4B684A6848AA2180
S113178002F098FAFB681B6807221340FA6ADA40F1
S113179013007B61BB1D1B78002B02D0012B0FD0E3
S11317A01DE0FB681B68202293431A00FB681A6043
S11317B0B96A7869FEF7ECFE0300013BFB6110E0B7
S11317C0FB681B6820221A43FB681A60BB6A5B0033
S11317D019007869FEF7DCFE0300FB6101E00123D8
S11317E096E0FA6980235B029A4201D301238FE0D9
S11317F0FB68FA699A601923FB1800221A707EE0CC
S1131800BB689B78642B01D9012381E0BB689B787A
S1131810002B04D11A23FB1800221A8017E0BB689E
S11318209B781A00FB69534364211800FEF7B0FE4D
S113183003001A001A217B181A807B181B88FA6986
S11318409A4204D8FB699AB27B1801321A80BB68A9
S11318501B78FA680133DB00D31804331B68BA68B9
S1131860127810003C2293431A00F968431CDB00F1
S1131870CB1804331A60C046BB681B78FA6801337E
S1131880DB00D31804331B683C221340F4D1BB683B
S11318901B78FA680133DB00D31804331A68BB6879
S11318A05B789B001343BA681278100020221A4315
S11318B0F968431CDB00CB1804331A60C046BB68CC
S11318C01B78FA680133DB00D31804331B683C220D
S11318D01340F4D0BB681B7818001A23FB181A882D
S11318E0F968431CDB00CB1808331A60BB68033368
S11318F0BB6019217B181A787B1801321A701923DE
S1131900FA18FB1D12781B789A4200D278E700235C
S11319101800BD4608B080BDFC5A00006865000090
S1131920945A0000085B0000145B0000205B000078
S113193080B584B000AF78607B681B0C084A94467D
S11319406344FB60FB6819687B681B041B0C012261
S11319509A40FB680A431A60C046BD4604B080BD85
S11319600070044080B584B000AF78600023FB6051
S113197006E00D4A7B68934206D0FB680133FB60A6
S1131980FB68002BF5D000E0C046FB68002B05D0B7
S1131990064B074A0748462102F08CF9FB681800F9
S11319A0BD4604B080BDC04600B00340705B00007B
S11319B078650000945B000080B584B000AF786067
S11319C039603B68002B05D13F4B404A40484D21CC
S11319D002F070F97B681800FFF7C4FF3D4B180054
S11319E0FFF7A6FF3B685B781A0003231A403B68A5
S11319F01B799B000C210B401343FB603B685B7914
S1131A00042B03D0FB6810221343FB603B68DB7894
S1131A105B0160221340FA681343FB603B68DB7987
S1131A20002B03D0FB6880221343FB607B68FA68B9
S1131A309A607B68DB680F229343FB603B685B79A9
S1131A40042B07D03B685B791A0003231340FA6820
S1131A501343FB603B689B79002B03D0FB68042293
S1131A601343FB603B689B78002B03D0FB68082280
S1131A701343FB607B68FA68DA607B681B6A0322A5
S1131A809343FB603B681B781A0003231340FA68F6
S1131A901343FB607B68FA681A623B681B7A002B6D
S1131AA006D07B685B6A08221A437B685A6206E0A8
S1131AB07B685B6A082293431A007B685A62C046BB
S1131AC0BD4604B080BDC046F45B00008C650000D8
S1131AD0945B00001B003C1080B582B000AF7860BE
S1131AE07B68002B05D1124B124A13488D2102F05A
S1131AF0E1F87B6800221A707B6803225A707B68C5
S1131B0001229A707B680322DA707B6801221A71C1
S1131B107B6804225A717B6800229A717B680022D8
S1131B20DA717B6800221A72C046BD4602B080BDDD
S1131B30F45B000098650000945B000080B584B0FD
S1131B4000AF78600A00FB1C1A707B685B6A07228E
S1131B509343FB60FB1C1B78042B08D0FB1C1B78F5
S1131B6003221A40FB68134304221343FB607B687F
S1131B70FA685A62C046BD4604B080BD80B586B0DE
S1131B8000AFF860B9607A60BB68012B06D9174BC7
S1131B90174A5421FF31174802F08CF87B68002B58
S1131BA006D1154B124AAA214900124802F082F8C4
S1131BB07B681B681F2213407B617B685B79002B69
S1131BC003D07B69202213437B617B681B79002B44
S1131BD003D07B69402213437B61FB68BA6892009F
S1131BE07969D150C046BD4606B080BD045C000092
S1131BF0B0650000945B0000F45B000080B584B025
S1131C0000AF786039603B68012B06D90C4B0D4A54
S1131C106A21FF310C4802F04DF80023FB607B6819
S1131C203A689200D3588022134003D0FB68802284
S1131C301343FB60FB681800BD4604B080BDC0467A
S1131C40045C0000C8650000945B000080B584B0AB
S1131C5000AF78607B681B0C084A94466344FB60C1
S1131C60FB6819687B681B041B0C01229A40FB6803
S1131C700A431A60C046BD4604B080BD00700440EB
S1131C8080B582B000AF786039603A6880235B0128
S1131C90134009D07B689B79DAB23B681B0ADBB23C
S1131CA01343DAB27B689A713A688023DB011340EC
S1131CB009D07B689B79DAB23B681B0ADBB2134319
S1131CC0DAB27B689A713B68DAB27B68DA70C04634
S1131CD0BD4602B080BD000080B584B000AF78601E
S1131CE00023FB6009E00E4BFA689200D3587A682F
S1131CF09A4206D0FB680133FB60FB68012BF2D9E2
S1131D0000E0C046FB68012B05D9064B064A07488C
S1131D10B52101F0CFFFFB681800BD4604B080BDBB
S1131D2064660000245C000074660000485C0000E7
S1131D3080B584B000AF786039600023FB603B68F5
S1131D401022134005D07B681022DA70064BFB602A
S1131D5005E03B680122134001D0044BFB60FB68A3
S1131D601800BD4604B080BD4F0400004E040000BE
S1131D7080B582B000AF786039607B68DB78DBB215
S1131D801A001023134006D17B689B78DBB21A003B
S1131D902023134006D00A4B1B6839687A68100068
S1131DA0984705E0074B1B6839687A681000984724
S1131DB0BFF34F8FC046C046BD4602B080BDC0468B
S1131DC04CF0FF1F50F0FF1F80B586B000AFF860E5
S1131DD0B9607A60BB68002B02D07B68002B06D107
S1131DE0364B374AED214900364801F063FFFB6862
S1131DF01800FFF771FF0200334B9200D35818000C
S1131E00FFF724FFFB6800221A70FB6800225A7057
S1131E10FB6800229A70FB68FF22DA70FB680022DC
S1131E205A71FB6850229A71FB680022DA71FB68D0
S1131E309B78DBB27F221340DAB2FB689A70234AA4
S1131E40FB6811001800FFF71BFFBB6859687A682C
S1131E50FB68180000F064F817203B18FA689279C0
S1131E601A703B183A1812787F210A401A70BB681E
S1131E705B78DB01D9B23B183A1812780A431A701E
S1131E803B183A1812780F218A431A70BB681B7AE0
S1131E900F221340D9B23B183A1812780A431A7029
S1131EA0FB683A1812789A71BB681B78DB01DAB2C6
S1131EB0FB689A70C046BD4606B080BDA85C0000B1
S1131EC084660000485C00006C660000125000004C
S1131ED080B582B000AF78607B68002B05D10B4BD6
S1131EE00B4A0C490C4801F0E5FE7B680B4A5A602A
S1131EF07B6800225A707B6800221A727B68012278
S1131F001A70C046BD4602B080BDC046C45C000025
S1131F109466000023020000485C0000A0860100D3
S1131F2080B58CB000AFF860B9607A6001235B4281
S1131F30BB6200237B6200233B621F23FB18002249
S1131F401A704BE01F23FB181B7801229A401300E0
S1131F50BB611E23FB1800221A7032E01E23FB18FB
S1131F601A782B4B5200D35A1A00BB6953431900F9
S1131F707868FEF70DFB03007B61BA687B699A42BF
S1131F8004D9BA687B69D31AFB6203E07A69BB6837
S1131F90D31AFB62FA6ABB6A9A420CD21F23FB185B
S1131FA01B787B621E23FB181B783B62FB6ABB62B7
S1131FB0FB6A002B0BD01E22BB18BA181278013210
S1131FC01A701E23FB181B783F2BC7D900E0C046AC
S1131FD01F22BB18BA18127801321A701F23FB187B
S1131FE01B78022B02D8BB6A002BABD17B6ADBB215
S1131FF09B01DAB23B6ADBB23F210B40DBB21343F5
S1132000DAB2FB685A70C046BD460CB080BDC0460B
S1132010E465000080B584B000AF7860080011006A
S1132020FB1C021C1A70BB1C0A1C1A700023FB60E8
S11320307B68180000F0BAF80300BB60BB6820227C
S1132040134002D00F4BFB6016E07B689B78DBB239
S113205030221343DAB27B689A70FB1C1B78DB18BE
S1132060DAB2BB1C1B78012B01D1012300E0002351
S11320701343DAB27B681A71FB681800BD4604B0DA
S113208080BDC0464C04000080B586B000AF7860C7
S113209008001100FB1C021C1A70BB1C0A1C1A70DD
S11320A000237B617B68180000F080F80300FB606C
S11320B01323FB1806221A70FB682022134009D050
S11320C07B689B78DBB21A002023134002D11D4B9E
S11320D07B6131E00B217B187A6852781A707B1887
S11320E01B783F221340DAB27B685A707B689B7876
S11320F0DBB214221343DAB27B689A707B687A18D5
S113210012785A7001E0C046C0461322BB181B78EF
S1132110BA18591E1170002BF5D1FB1C1B78DB1863
S1132120DAB2BB1C1B78012B01D1012300E0002390
S11321301343DAB27B681A717B691800BD4606B096
S113214080BDC0464C04000080B584B000AF786008
S11321500023FB600A23FB18012252421A807B6889
S11321609B78DBB238229343DAB27B689A70C0461C
S11321707B68DB78DBB21A002023134009D00A21E4
S11321807B187A181288013A1A807B181B88002B56
S1132190EED10A23FB181B88002B02D18A23DB0013
S11321A0FB60FB681800BD4604B080BD80B584B0F8
S11321B000AF78607B68DB78DBB2FB607B689B797F
S11321C0DBB21A004023134004D0FB688022D20102
S11321D01343FB607B689B79DBB21A001023134026
S11321E004D0FB68802252011343FB60FB68180093
S11321F0BD4604B080BD000080B586B000AFF86075
S1132200B9607A603B6000237B611323FB180022D2
S11322101A70C046FB68DB78DBB25BB2002BF9DADC
S1132220FB680222DA70FB689B78DBB2102213434E
S1132230DAB2FB689A7030E0BB685A1CBA601A784C
S1132240FB681A71C046FB68DB78DBB21A00022314
S11322501340F8D013217B18FA68D2781A70FB68FF
S11322600222DA707B181B781022134004D0FB681A
S11322701022DA70194B7B611323FB181B7801229F
S1132280134007D07B68002B04D0FB680122DA706E
S1132290134B7B617B69002B05D17B685A1E7A60E6
S11322A0002BC9D100E0C0467B69002B03D13B68F9
S11322B00422134003D07B69094A934208D1FB6886
S11322C00222DA70FB681800FFF73EFF03007B610F
S11322D07B691800BD4606B080BDC0464F040000AF
S11322E04E04000080B586B000AFF860B9607A6033
S11322F03B6000237B6113217B1800221A707B183A
S11323001B78DBB20133DAB27B181A70C046FB6863
S1132310DB78DBB25BB2002BF9DAFB680222DA70FD
S1132320FB689B78DBB218229343DAB2FB689A709D
S11323307B68012B07D1FB689B78DBB2082213432F
S1132340DAB2FB689A70FB681B79DAB21323FB18C4
S11323501A7032E0C046FB68DB78DBB21A00022355
S11323601340F8D0FB680222DA707B68002B12D18C
S11323703B680422134006D1FB681800FFF7E4FE13
S113238003007B6107E0FB689B78DBB210221343F8
S1132390DAB2FB689A707B68012B07D1FB689B78E3
S11323A0DBB208221343DAB2FB689A70BB685A1C8A
S11323B0BA60FA681279D2B21A707B685A1E7A60CF
S11323C0002BC7D17B691800BD4606B080BD000054
S11323D080B584B000AF786039603B68002B05D1CC
S11323E0844B854A8549864801F064FC0F23FB1819
S11323F03A6852791A700023BB60824A7B681100E4
S11324001800FFF73DFCC0467B68DB78DBB25BB2AB
S1132410002BF9DA3B681B7B002B07D03B685B7908
S1132420012B03D10F23FB1800221A703B681B6891
S1132430022213400BD03B6819790F23FB181A783A
S11324407B681800FFF720FE0300BB600AE03B68CE
S113245019790F23FB181A787B681800FFF7DAFD47
S11324600300BB60BB68002B01D0BB68BEE0C04664
S11324707B68DB78DBB21A0002231340F8D07B6858
S1132480DB78DBB21A007B6811001800FFF750FC00
S11324900300BB60BB68002B0BD0BB685A4A934255
S11324A005D15A4BBB607B681800FFF74DFEBB6833
S11324B09CE03B681B7B002B00D170E07B68022210
S11324C0DA703B681B7B013BDAB23B681A733B68EA
S11324D09A683B681B7BDB00DA401300DAB27B6846
S11324E01A71C0467B68DB78DBB21A000223134002
S11324F0F8D07B68DB78DBB21A007B681100180027
S1132500FFF716FC0300BB60BB68002B09D0BB6857
S11325103D4A934203D17B681800FFF715FEBB6860
S113252064E03B681B7B002B02D0BB68002BC5D04A
S11325303B685B79012B32D17B680222DA703B68FD
S113254019797B6801221800FFF79EFD0300BB6028
S1132550BB68002B01D0BB6848E0C0467B68DB78D1
S1132560DBB21A0002231340F8D07B68DB78DBB2BD
S11325701A007B6811001800FFF7DAFB0300BB6048
S1132580BB68002B0BD0BB681F4A934205D11F4B7D
S1132590BB607B681800FFF7D7FDBB6826E03B688B
S11325A05B79002B0ED13B685B69002B0AD03B683A
S11325B019693B685A693B681B687868FFF71CFE19
S11325C00300BB603B685B79012B0ED13B685B6900
S11325D0002B0AD03B6819693B685A693B681B6841
S11325E07868FFF77FFE0300BB60BB681800BD4638
S11325F004B080BDD45C0000B06600009503000008
S1132600485C0000125000004E0400005104000019
S113261080B500AF044B1B68044A19001000FFF793
S1132620A7FBC046BD4680BD44F0FF1F00600640C6
S113263080B500AF044B5B68044A19001000FFF733
S113264097FBC046BD4680BD44F0FF1F00700640A6
S113265080B584B000AF78607B681B0C084A944650
S11326606344FB60FB6819687B681B041B0C012234
S11326709A40FB680A431A60C046BD4604B080BD58
S11326800070044080B582B000AF78607B681B683E
S1132690024A13401800BD4602B080BD0400008009
S11326A080B582B000AF78600A00FB1C1A707B68AA
S11326B01B68074A1A40FB1C1B785B031B041B0C9A
S11326C01A437B681A60C046BD4602B080BDC0464E
S11326D0FB1FFF7F80B582B000AF78600A00FB1C4F
S11326E01A707B681B68074A1A40FB1C1B78190286
S11326F0F8235B010B401A437B681A60C046BD4651
S113270002B080BDFBE0FF7F80B582B000AF78608F
S11327100A00FB1C1A70FB1C1B78002B08D07B687A
S11327201B68084A134080221A437B681A6005E03C
S11327307B681B68034A1A407B681A60C046BD4622
S113274002B080BD7BFFFF7F80B582B000AF7860B0
S11327507B685B688022D2031A437B685A60C04658
S1132760BD4602B080BD000080B582B000AF786085
S11327700A00FB1C1A70FB1C1B780F2B05D90A4B93
S11327800A4A0B490B4801F095FA7B685B681B0108
S11327901A09FB1C1B781B071A437B685A60C04646
S11327A0BD4602B080BDC046345D00001467000021
S11327B0050200005C5D000080B582B000AF786067
S11327C07B685B689BB21800BD4602B080BD000008
S11327D080B582B000AF78600A00BB1C1A80BB1CB5
S11327E01B880B4A934205D10A4B0B4A0B490C48F0
S11327F001F060FA7B689B681B0C1A04BB1C1B88E5
S11328001A437B689A60C046BD4602B080BDC0468C
S1132810FFFF0000BC5D0000F066000056020000EF
S11328205C5D000080B582B000AF78600A00BB1C1C
S11328301A80BB1C1B880C4A934206D10B4B0C4AD2
S1132840992189000B4801F035FA7B689B681B04C9
S11328501A0CBB1C1B881B041A437B689A60C04675
S1132860BD4602B080BDC046FFFF0000D45D00003D
S1132870D86600005C5D000080B582B000AF78606F
S11328800A00FB1C1A707B681B68074A1A40FB1C71
S11328901B781906F0231B050B401A437B681A604A
S11328A0C046BD4602B080BDFBFFFF7080B582B05C
S11328B000AF78600A00FB1C1A707B681B68074A2B
S11328C01A40FB1C1B785905E0231B040B401A43D8
S11328D07B681A60C046BD4602B080BDFBFF1F7F07
S11328E080B582B000AF78600A00FB1C1A707B6868
S11328F01B68074A1A40FB1C1B781904E023DB02FF
S11329000B401A437B681A60C046BD4602B080BDC6
S1132910FBFFF87F80B582B000AF78600A00FB1C33
S11329201A707B681B68074A1A40FB1C1B78D90481
S1132930C0235B030B401A437B681A60C046BD4644
S113294002B080BDFBFFE77F80B582B000AF786046
S11329500A00FB1C1A707B681B68074A1A40FB1CA0
S11329601B781904E023DB020B401A437B681A60CE
S1132970C046BD4602B080BDFBFFFE7F80B582B07D
S113298000AF78600A00FB1C1A707B681B68064A5B
S11329901A40FB1C1B785B041A437B681A60C04610
S11329A0BD4602B080BDC046FBFFF97F90B585B03F
S11329B000AF786039603B68002B05D1604B614AF9
S11329C06148222101F076F90F243B1900221A7084
S11329D00E23FB1800221A705C4B1800FFF738FE18
S11329E07B681B688022134007D03B1901221A70B0
S11329F07B6800211800FFF787FE7B681B68402274
S1132A00134008D00E23FB1801221A707B680121A1
S1132A10180000F057F93B681B7A002B38D13B684B
S1132A201A887B6811001800FFF7FCFE3B685A887F
S1132A307B6811001800FFF7CBFE3B681A797B68AE
S1132A4011001800FFF72CFE3B689A797B6811008F
S1132A501800FFF72BFF3B685A797B6811001800B8
S1132A60FFF73EFF3B68DA797B6811001800FFF737
S1132A7031FE3B681A7A7B6811001800FFF7FCFEF0
S1132A803B685A7A7B6811001800FFF743FF3EE069
S1132A903B681A887B6811001800FFF7C3FE3B6887
S1132AA05A887B6811001800FFF792FE3B681A7978
S1132AB07B6811001800FFF7F3FD3B689A797B6887
S1132AC011001800FFF7F2FE3B68DA797B68110009
S1132AD01800FFF7FFFD3B681A7A7B6811001800A5
S1132AE0FFF7CAFE3B685A7A7B6811001800FFF7AB
S1132AF011FF3B689A7A7B6811001800FFF724FFE6
S1132B003B68DA7A7B6811001800FFF737FF0F2360
S1132B10FB181B78002B04D07B6801211800FFF7F9
S1132B20F3FD0E23FB181B78002B04D07B680121D6
S1132B30180000F099F8C046BD4605B090BDC046E7
S1132B40F05D0000CC660000005E00000500381057
S1132B5080B582B000AF78607B6800221A807B6801
S1132B6000225A807B6801221A717B6800225A7104
S1132B707B6803229A717B680422DA717B680022E5
S1132B801A727B6800225A72C046BD4602B080BDEC
S1132B90B0B584B000AF786039603B68002B05D1D4
S1132BA02E4B2F4A2F487B2101F084F80F23FB186A
S1132BB000221A700E217B1800221A707B681B6891
S1132BC04022134007D07B1801221A707B68012130
S1132BD0180000F077F80F23FB1800221A702AE07F
S1132BE00F23FB181A787B6811001800FFF7BCFD4F
S1132BF07B681800FFF7A8FDC0467B681800FFF744
S1132C0041FD030004221340F7D00F257B191C78E3
S1132C107B681800FFF7D0FD030019003B686200D1
S1132C20D1527B680421180000F07AF87B191A78D5
S1132C307B1901321A700F23FB181B780F2BCFD985
S1132C400E23FB181B78002B04D07B68012118008D
S1132C5000F00AF8C046BD4604B0B0BD605E000096
S1132C6004670000005E000080B584B000AF7860A7
S1132C7039607B681B68114A1340FB603B68012282
S1132C80134003D0FB6840221343FB603B680222DD
S1132C90134003D0FB680A4A1340FB603B680422DC
S1132CA0134004D0FB68802252051343FB607B6809
S1132CB0FA681A60C046BD4604B080BDFBFFFF7FC2
S1132CC0FFFFFFEF80B584B000AF786039607B68A8
S1132CD01B68114A1340FB603B680122134003D078
S1132CE0FB6840229343FB603B680222134004D0FC
S1132CF0FB68802252051343FB603B6804221340A7
S1132D0003D0FB68054A1340FB607B68FA681A60CD
S1132D10C046BD4604B080BDFBFFFF7FFFFFFFEF51
S1132D2080B584B000AF786039607B681B680D4A59
S1132D301340FB603B680422134003D0FB68042269
S1132D401343FB603B68002B04DAFB688022120605
S1132D501343FB607B68FA681A60C046BD4604B042
S1132D6080BDC046FBFFFF7F80B582B000AF02008C
S1132D70FB1D1A70FB1D1B781A001F231A40044BFD
S1132D80012191400A001A60C046BD4602B080BDD0
S1132D9000E100E080B582B000AF0200FB1D1A70B4
S1132DA0FB1D1B781A001F231340054901229A407A
S1132DB0130080228B50C046BD4602B080BDC04681
S1132DC000E100E090B583B000AF02003960FB1D64
S1132DD01A70FB1D1B787F2B32D92F4AFB1D1B78E1
S1132DE019000F230B40083B9B0806339B00D318A4
S1132DF004331B68FA1D1278110003220A40D20022
S1132E00FF2191400A00D2431A4011003B689B0104
S1132E10FF221A40FB1D1B78180003230340DB002C
S1132E209A401D48FB1D1B781C000F232340083BC0
S1132E309B080A4306339B00C31804331A6027E037
S1132E40164AFB1D1B785BB29B08C0339B009B5842
S1132E50FA1D1278110003220A40D200FF2191408A
S1132E600A00D2431A4011003B689B01FF221A401A
S1132E70FB1D1B78180003230340DB009A4007481E
S1132E80FB1D1B785BB29B080A43C0339B001A509E
S1132E90C046BD4603B090BD00ED00E000E100E097
S1132EA080B582B000AF7860084A094BD358094A0C
S1132EB01A407B681906C0239B040B400349134343
S1132EC0034A8B50C046BD4602B080BD007004402A
S1132ED004100000FFFFFFFC80B582B000AF0200C9
S1132EE0FB1D1A70FB1D1B785BB2803306D0FB1DE3
S1132EF01B785BB21800FFF737FF00E0C046BD4601
S1132F0002B080BD80B582B000AF0200FB1D1A7014
S1132F10FB1D1B785BB2803306D0FB1D1B785BB2B4
S1132F201800FFF737FF00E0C046BD4602B080BD81
S1132F3080B582B000AF786039607B681A693B68FD
S1132F40DA401300012213401800BD4602B080BDD0
S1132F5080B584B000AFF860B960FB1D1A70FB68DF
S1132F60BA689200D358094A1A40FB1D1B78190409
S1132F70F0231B030B401A431100FB68BA6892004C
S1132F80D150C046BD4604B080BDC046FFFFF0FF2F
S1132F9080B582B000AF78607B68002B05D1064B0A
S1132FA0064A0748812100F085FE7B6800221A70DA
S1132FB0C046BD4602B080BD705E00005867000088
S1132FC0785E000080B584B000AFF8607A600B20B2
S1132FD03B180A1C1A703B181A78F96884235B00A2
S1132FE012018A18D3181A683B1819787B681A4397
S1132FF0F86884235B0009014118CB181A60C046A5
S1133000BD4604B080BD80B584B000AFF8607A607E
S11330100B203B180A1C1A703B181A78F96886238F
S11330205B0012018A18D3187A681A60C046BD463C
S113303004B080BD80B584B000AFF8607A600B2026
S11330403B180A1C1A703B181A78FB6810321201DC
S11330507968D150C046BD4604B080BD80B582B009
S113306000AF78600A00FB1C1A70FB1C1A787968A0
S113307084235B0012018A18D3181B68FA1C117888
S113308001221A43786884235B0009014118CB1894
S11330901A60C046BD4602B080BD80B584B000AFA2
S11330A078600A00FB1C1A707B681B68FB60FB6875
S11330B018229343FB60FB1C1B78DB00182213408F
S11330C0FA681343FB607B68FA681A60C046BD4621
S11330D004B080BD80B582B000AF786039603B68D1
S11330E0012B06D9074B084AFB214900074800F089
S11330F0E1FD7B683A6804329200D3581800BD465B
S113310002B080BD3C5F000038670000585F0000DB
S113311080B582B000AF78607B681B68024A1340B8
S11331201800BD4602B080BD0400008080B582B0A6
S113313000AF78600A00FB1C1A70FB1C1B78002B84
S113314008D07B681B68084A134080221A437B68B6
S11331501A6005E07B681B68034A1A407B681A60A2
S1133160C046BD4602B080BD7BFFFF7F80B582B004
S113317000AF78607B685B688022D2031A437B6867
S11331805A60C046BD4602B080BD000080B582B022
S113319000AF78600A00FB1C1A70FB1C1B780F2B15
S11331A005D90A4B0A4A0B490B4800F083FD7B689A
S11331B05B681B011A09FB1C1B781B071A437B68FD
S11331C05A60C046BD4602B080BDC0461C600000C7
S11331D070670000050200004460000080B582B002
S11331E000AF78607B685B689BB21800BD4602B094
S11331F080BD000080B500AF054B012200211800FE
S1133200FFF701FF034B01221A70C046BD4680BD83
S11332100070034054F0FF1F80B500AF064B082137
S11332201800FEF779F91F20FFF76CFE034B01220B
S11332301A70C046BD4680BD80F00F4055F0FF1F98
S113324090B587B002AF3B1D04221A703B1D0122CA
S11332505A703B1D14229A700120FFF721FE0824A6
S11332603B191800FEF72EFA3B190D4A19001000FD
S1133270FEF7BAF9052001F02BFB0300391D0848BD
S11332800193084B009301230122FEF74BFA044BF0
S113329001211800FFF701FFC046BD4605B090BDEF
S11332A000800340C05D000080B582B000AF3B1DCC
S11332B000221A703B1D00225A703B1D0A481A0056
S11332C00321FEF7F1F8094B0A2203211800FFF746
S11332D03FFE01211F20FFF775FD1F20FFF7FCFDB6
S11332E0C046BD4602B080BD80F00F4000B004402F
S11332F080B582B000AF3B1D094A12881A803B1D7D
S113330008481A001D21FEF7CFF83B1D06481A0095
S11333100521FEF7C9F8C046BD4602B080BDC046CF
S11333200861000000F10F40C0F00F4080B584B088
S113333000AF3B1D1800FEF7CFFB3B1D01221A70A6
S11333403B1D074A19001000FEF736FB044B04210D
S11333501800FEF7F3FBC046BD4604B080BDC0466E
S113336000B0034080B582B000AF3B0017221A6062
S11333703B0000221A713B000C481A000021FEF7A2
S1133380FDFBC046094B00211800FEF737FC030083
S113339080221340F6D0054B00211800FFF79AFE57
S11333A003009BB21800BD4602B080BD00B00340CC
S11333B0F0B589B000AF1C23FB181800FFF7E8FD37
S11333C01C23FB18344A19001000FDF7EBFF022000
S11333D001F07EFA03003B6000237B603A687B685F
S11333E0D10E58010500280084468C44604605002F
S11333F053011C0023002C003D687E682900320024
S11334005B1A94411A002300D10D5C027C617C6933
S1133410A4468C4464467C6153023B613B697C69ED
S1133420290032005B1854411A002300910E9801C0
S1133430F860F86884468C446146F9609101B9608B
S1133440B868F968801A994103000C00280031001B
S1133450C0186141114A0023FDF710FA02000B0065
S11334600D4B00211800FFF7E5FD0B4B0222002154
S11334701800FFF7A7FD02211620FFF7A3FC162072
S1133480FFF72AFD044B00211800FFF7E7FDC046B3
S1133490BD4609B0F0BDC0460070034040420F0075
S11334A080B584B000AF0200FB1D1A70BB1D0A1C5E
S11334B01A700C217B18BA1D12781A70124B1A78E4
S11334C0124B1A71114B00225A71FB1D1A780F4BC3
S11334D09A600E4B01221A730C4B7A181A610B4B2B
S11334E001225A61094B00221A60084B084A19004C
S11334F01000FEF76DFF03005A425341DBB218007F
S1133500BD4604B080BDC0465CF0FF1F60F0FF1FE5
S11335100060064080B584B000AFB9607A600F21C6
S11335207B18021C1A70124B1A78124B1A71114B29
S113353001225A717B181A780E4B9A600D4B0122A6
S11335401A730C4BBA681A610A4B7A685A61094BB0
S113355000221A60074B084A19001000FEF738FFD2
S113356003005A425341DBB21800BD4604B080BD8B
S11335705CF0FF1F60F0FF1F0060064090B587B04D
S113358000AF08243B191800FEF7A2FC3B19284A97
S11335905A60022001F09CF902003B1925481900E9
S11335A0FEF712FC00237B6123E0FB1D00221A704E
S11335B0214A7B69D3181A78204B1A70FB1D01220B
S11335C019000D20FFF7A6FF031E0CD0FB1D1B786E
S11335D0C72B08D1194B1B781A00194B110018007E
S11335E000F076FC08E0154B00221A707B69013369
S11335F07B617B69032BD8D9104B1B78002B05D139
S1133600104B180000F064FC00230CE000212A2079
S1133610FFF746FF01210E20FFF742FF0D212A206C
S1133620FFF73EFF01231800BD4607B090BDC0461A
S1133630A086010000600640346700005CF0FF1FB4
S11336400C6100003861000080B588B000AFF860FC
S1133650B9607A60464B1B78002B0DD01423FB18FD
S1133660062219000120FFF755FF03001A00012369
S11336705340DBB2002B09D0FB6800221A80BB68E0
S113368000221A807B6800221A806EE01422BB1884
S11336901B781B029BB2BA18527813439BB21BB21D
S11336A01E22BA18002B00DA03339B101380142255
S11336B0BB189B781B029BB2BA18D27813439BB2F7
S11336C01BB21C22BA18002B00DA03339B101380A0
S11336D01422BB181B791B029BB2BA1852791343EC
S11336E09BB21BB21A22BA18002B00DA03339B10C8
S11336F013801E23FB1800229A5E13001B019B1AE1
S11337009B009B18DB001A00FA2399001000FCF7B9
S1133710C9FF03001AB2FB681A801C23FB1800229D
S11337209A5E13001B019B1A9B009B18DB001A0076
S1133730FA2399001000FCF7B5FF03001AB2BB6826
S11337401A801A23FB1800229A5E13001B019B1A8D
S11337509B009B18DB001A00FA2399001000FCF769
S1133760A1FF03001AB27B681A80BD4608B080BD71
S11337705CF0FF1F90B587B000AF78600C243B1954
S11337801800FFF7E5F93B190C4A19001000FFF780
S11337900DF90A4B01211800FFF7C8FC7B682022B1
S11337A00021180001F01AFC7B68044A190010007B
S11337B0FFF7EEF9C046BD4607B090BD0050044087
S11337C0B0B584B000AF78607B68DBB2124A1900F0
S11337D01000FFF7DBFC104B1800FFF7C7FCC046D6
S11337E00D4B1800FFF794FC030004221340F7D09C
S11337F00E257C19084B1800FFF7F0FC030023800A
S1133800054B04211800FFF78BFA7B191B8818005D
S1133810BD4604B0B0BDC0460050044080B584B07D
S113382000AF78600920FFF7CBFF03001A007B6824
S11338305B8AD31AFB600A20FFF7C2FF03001A0059
S11338407B689B8AD31ABB60FB68002B01DA0023D8
S1133850FB60BB68002B01DA0023BB60FA68BB681D
S1133860D318132B01DCFF230BE0BB6864225A43FB
S11338701000FA68BB68D3181900FCF713FF0300A3
S1133880DBB21800BD4604B080BD0000F0B5CE46E2
S1133890474680B593B004AF00F04AF900F0FAFD52
S11338A000F0F0F9634B180000F012FBFFF720FD65
S11338B0FFF7C6FCFFF7F8FCFFF738FD0C23FB18F5
S11338C01800FFF757FFFFF759FEFFF771FD5A4B3A
S11338D0180000F0FDFA594B1B78DBB2002B2AD0FC
S11338E0564B00221A700023BB6002E0BB68013310
S11338F0BB60BB68524A9342F8D9524B032118006B
S1133900FFF716FB031E13D14F4B1B685A1C4E4B7B
S11339101A604E4B1B78DBB25A1E9341DBB2012274
S11339205340DBB21A1C01231340DAB2474B1A701E
S11339301F20FFF7D1FA464B1B78DBB2002BCAD00D
S1133940434B00221A7036257C19FFF70BFD030048
S113395023807B191B88180001F0B4FE031C3D4929
S1133960181C01F045FD031C3B49181C01F02AFCFE
S1133970031C3B63BA1C391DBB1D1800FFF764FE12
S11339802F23FC180C22BB181800FFF747FF030075
S113399023702E4B1B78DBB2002B42D0BB1D0022C0
S11339A09B5E1E003B1D00229B5E9846BB1C0022B2
S11339B09B5E99467B191C88386B01F063FE0500F9
S11339C02649386B01F014FD031C181C01F05AFE43
S11339D0030064211800FCF74BFF0B0020480293FE
S11339E0019500944B464246310000F071FA2F23B2
S11339F0FB181B78FF2B04D11A4B180000F068FA4F
S1133A0007E02F23FB181A78174B1100180000F059
S1133A105FFA0D4B1A68154B1100180000F058FAA4
S1133A2059E7094B1A68124B1100180000F050FABC
S1133A3051E7C0468C610000B861000055F0FF1FDB
S1133A404FC3000080F00F4058F0FF1F00F0FF1F2D
S1133A5054F0FF1F3333534000F07F450000C84249
S1133A60EC610000286200002C620000306200005B
S1133A704462000080B584B000AF78607B681B0CA2
S1133A80084A94466344FB60FB6819687B681B041E
S1133A901B0C01229A40FB680A431A60C046BD46CB
S1133AA004B080BD0070044080B586B000AFF860FB
S1133AB0B9607A607B68002B06D10A4B0A4A8121DF
S1133AC049000A4800F0F6F8BB689B00FA68D3186E
S1133AD07B617B697A6812881A80C046BD4606B04D
S1133AE080BDC04654620000906700005C62000024
S1133AF080B584B000AFF860B960FB1D1A70FB6834
S1133B00BA689200D358094A1A40FB1D1B7819025F
S1133B10E023DB000B401A431100FB68BA689200F3
S1133B20D150C046BD4604B080BDC046FFF8FFFF7B
S1133B3080B582B000AF394B1800FFF79BFF384BBC
S1133B401800FFF797FF374B1800FFF793FF364B2A
S1133B501800FFF78FFF354B1800FFF78BFF344B2E
S1133B60022201211800FFF7C3FF314B0222022178
S1133B701800FFF7BDFF2F4A2F4BD3582D490722BA
S1133B8093432D4A8B502D4B01221D211800FFF722
S1133B90AFFF2A4B03221F211800FFF7A9FF284B70
S1133BA0012205211800FFF7A3FF3B1D00221A8004
S1133BB03B1D1A7803210A431A703B1D5A780721CA
S1133BC08A43111C01220A435A703B1D1D481A00E6
S1133BD00321FFF769FF194B00221E211800FFF78C
S1133BE087FF164B052218211800FFF781FF134B9E
S1133BF0052219211800FFF77BFF134B0022102127
S1133C001800FFF775FF104B002211211800FFF771
S1133C106FFFC046BD4602B080BDC04609003810E3
S1133C200A0038100B0038100C0038100D00381042
S1133C3000900440007004401010000000D00440C4
S1133C4000C0044000B0044000A0044080B582B02D
S1133C5000AF7860084A094BD358094A1A407B6878
S1133C609906C0231B050B4003491343034A8B5099
S1133C70C046BD4602B080BD007004400410000080
S1133C80FFFFFFF380B582B000AF0120FFF7DEFF36
S1133C9000F008FE03007B607B68E12251020448C7
S1133CA0032200F09BF8C046BD4602B080BDC0466A
S1133CB000A0064090B587B002AFF860B9607A60A2
S1133CC03B60BC68FA68396803487B68009323004A
S1133CD000F0FEF800BEFDE72063000080B582B06E
S1133CE000AF78600A00FB1C1A70FB1C1B78002BC9
S1133CF008D07B68DB78DBB208221343DAB27B6836
S1133D00DA7007E07B68DB78DBB208229343DAB22F
S1133D107B68DA70C046BD4602B080BD80B582B013
S1133D2000AF78600A00FB1C1A70FB1C1B78002B88
S1133D3008D07B68DB78DBB204221343DAB27B68F9
S1133D40DA7007E07B68DB78DBB204229343DAB2F3
S1133D507B68DA70C046BD4602B080BD80B582B0D3
S1133D6000AF78600A00FB1C1A70FB1C1B78002B48
S1133D7008D07B68DB78DBB208221343DAB27B68B5
S1133D80DA7007E07B68DB78DBB208229343DAB2AF
S1133D907B68DA70C046BD4602B080BD80B582B093
S1133DA000AF78600A00FB1C1A70FB1C1B78002B08
S1133DB008D07B68DB78DBB204221343DAB27B6879
S1133DC0DA7007E07B68DB78DBB204229343DAB273
S1133DD07B68DA70C046BD4602B080BD90B589B03C
S1133DE000AFF860B9603B60FB1D1A70334B1B7861
S1133DF0002B01D001235CE0304BFA1D12781A70BD
S1133E00FB1D1B78062B05D050DC012B02D0032BA5
S1133E1026D04BE0FA68294B5A6018243B19180045
S1133E20FDF7AAF921007B18BA681A60234B5B6876
S1133E303A6879181800FDF7A7F8204B5B68012150
S1133E401800FFF74BFF1D4B5B6801211800FFF7BB
S1133E5065FF1A4B1A4A9A60184B1A4ADA6027E02F
S1133E60FA68164B5A6010243B191800FCF714FF2B
S1133E7021007B18BA681A60104B5B683A6879189D
S1133E801800FCF7D5FD0D4B5B6801211800FFF706
S1133E9065FF0A4B5B6801211800FFF77FFF074BA2
S1133EA0094A9A60054B094ADA6001E0042300E0FC
S1133EB000231800BD4609B090BDC04678F0FF1F2E
S1133EC0EF1100002D120000A50D0000010E0000EE
S1133ED00FB480B582B000AF0C4B1B78002B02D11D
S1133EE001235B420BE01423FB183B603A683969F9
S1133EF0074B180000F0D6F803007B607B681800BD
S1133F00BD4602B080BC08BC04B0184778F0FF1F5F
S1133F10153F000090B583B000AF7860094B1B7863
S1133F20002B02D101235B4208E0064B9C68054B41
S1133F305B68391D01221800A04701231800BD4603
S1133F4003B090BD78F0FF1F80B586B000AFB960B4
S1133F507A603B600F23FB18021C1A70BB687B61FC
S1133F600DE00F23FB181A783B6A100098473B6852
S1133F701B685A1C3B681A607B6901337B617A6950
S1133F807B689A42EDDBC046C046BD4606B080BDA4
S1133F9080B58CB000AFF860B9607A603B600023F4
S1133FA0FB61FB68BB61BB695A1CBA6100221A70D1
S1133FB07B68002B35D0BB681B68FB62FB6A002B57
S1133FC02BD1BB6930221A70FB690133FB61FB6999
S1133FD064E03968F86AFCF765FB03003B613B6900
S1133FE03A685343FA6AD31ABB62BB6A002B06DAF7
S1133FF0BB6A3B623B6A3022D31ABB6202E0BB6AF3
S11340003033BB623B69FB62BB695A1CBA61BA6A52
S1134010D2B21A70FB690133FB61FB6A002BD8D161
S11340203BE0BB681B687B627B6A002B32D1BB69B7
S113403030221A70FB690133FB61FB692EE03B6897
S11340401900786AFCF7A4FA03007B613B687A697B
S113405053437A6AD31A3B623B6A092B03D83B6AFF
S113406030333B620BE03823FB181B78002B01D064
S1134070412300E061233A6A9B180A3B3B627B6957
S11340807B62BB695A1CBA613A6AD2B21A70FB6984
S11340900133FB617B6A002BD1D1FB691800BD465B
S11340A00CB080BD90B59DB002AFF860B9607A6085
S11340B000233B660023FB650023BB614A23FB18F6
S11340C000221A7000233B61BB687B667BE17B6C3A
S11340D0252B07D07A6CFB6810009847BB69013325
S11340E0BB616DE14B23FB1801221A7000237B6531
S11340F00023BB651BE07B6E01337B667B6E1B7804
S11341007B647B6C2F2B0DDD7B6C392B0ADC7A6D89
S113411013009B009B185B001A007B6CD318303B88
S11341207B6504E07B6E013B7B660123BB65BB6D55
S1134130002BE0D006233B657B6E01337B667B6EF0
S11341401B782E2B24D100233B650023BB651BE089
S11341507B6E01337B667B6E1B787B647B6C2F2BC1
S11341600DDD7B6C392B0ADC3A6D13009B009B1828
S11341705B001A007B6CD318303B3B6504E07B6E1C
S1134180013B7B660123BB65BB6D002BE0D002E0E5
S11341907B6E013B7B667B6E01337B667B6E1B789B
S11341A07B647B6C642B1BD07B6C692B18D07B6C81
S11341B0662B15D07B6C462B12D07B6C782B0FD0E2
S11341C07B6C582B0CD07B6C6F2B09D07B6C622BD7
S11341D006D07B6C702B03D07B6C752B00D0ABE0CE
S11341E07B6C642B02D07B6C692B16D17B681A1D07
S11341F07A601B687B611423F9181C2438194B233B
S1134200FB181B7800930A230122FFF7C1FE030069
S1134210FB653A19FB6DD3183B667B6C582B02D0B7
S11342207B6C782B1DD17B6C782B03D14B23FB1833
S113423000221A707B681A1D7A601B683B61102388
S1134240F9181C2438194B23FB181B7800931023EE
S11342500022FFF79DFE0300FB653A19FB6DD3189E
S11342603B667B6C6F2B08D07B6C622B05D07B6C20
S1134270702B02D07B6C752B40D17B681A1D7A6041
S11342801B683B617B6C752B1DD07B6C752B1FDC15
S11342907B6C702B12D07B6C702B19DC7B6C622BCB
S11342A007D07B6C6F2B13D14A23FB1808221A709A
S11342B00FE04A23FB1802221A700AE04A23FB1873
S11342C010221A7005E04A23FB180A221A7000E033
S11342D0C0464A23FB181A781023F9181C243819ED
S11342E04B23FB181B78009313000022FFF750FEAA
S11342F00300FB653A19FB6DD3183B667A6D1823EE
S1134300F818F96DFB68009303002020FFF71CFEEA
S11343103B6E002B54D00AE03B6E5A1E3A661B7863
S11343201A00FB6810009847BB690133BB613B6E00
S11343301B78002BF0D143E07B6C632B0DD17B68A1
S11343401A1D7A601B68DBB23B643A6CFB68100090
S11343509847BB690133BB6132E07B6C732B28D176
S11343607B681A1D7A601B68FB64FB6C002B27D0EA
S1134370FB6C1800FCF704F90300FB657A6D182345
S1134380F818F96DFB68009303002020FFF7DCFDAB
S11343900AE0FB6C5A1CFA641B781A00FB681000D4
S11343A09847BB690133BB61FB6C1B78002BF0D1D0
S11343B006E07A6CFB6810009847BB690133BB6167
S11343C07B6E01337B667B6E1B787B647B6C002B7E
S11343D000D07CE6BB691800BD461BB090BD000050
S11343E080B500AF0B4B9B78DBB21A000823134057
S11343F007D0084B9B78DBB2064A08210B43DBB29B
S11344009370054A88235B010021D150C046BD4604
S113441080BDC04600D007400070044080B500AFA6
S1134420034A044B0449D150C046BD4680BDC04632
S113443000700440441000000000031080B582B0F6
S113444000AF7860034B7A681A60C046BD4602B07C
S113445080BDC04688F0FF1F80B582B000AF020067
S1134460FB1D1A700A4B1B78DBB238229343DAB275
S1134470FB1D1B78DB00DBB238210B40DBB20449A7
S11344801343DBB20B70C046BD4602B080BDC046CC
S11344900040064080B500AFFFF7C0FF104B180086
S11344A000F09EFC0F4B1800FFF7C8FF0023180014
S11344B0FFF7D2FF0C4B1A000021002000F03AFD58
S11344C0022300210022180000F0A8FB074B18006B
S11344D000F092FA064B074A1A60C046BD4680BDFA
S11344E0B867000000127A00AB670000B0670000F4
S11344F004F0FF1F006CDC0280B582B000AF78606E
S1134500084B1B68084A134019007B689A04C023AF
S11345101B031A40034B0A431A60C046BD4602B04F
S113452080BDC04600700440FFFFF3FF80B582B039
S113453000AF7860084A094BD358094A1A407B688F
S1134540190480235B020B4003491343034A8B5035
S1134550C046BD4602B080BD007004400410000097
S1134560FFFFFEFF80B584B000AF786039600F2094
S11345703B187A6812781A703B183A1812785F213F
S11345800A401A703B6819783B183A1812780A43A3
S11345901A707B683A1812781A70C046BD4604B087
S11345A080BD80B584B000AF78600A00FB1C1A702F
S11345B00F203B187A6812781A703B183A18127850
S11345C00F218A431A703B183918FA1C097812789B
S11345D00A431A707B683A1812781A70C046BD46AE
S11345E004B080BD80B500AF074B1B68002B05D11C
S11345F0064B074A0748E121FFF75CFB024B1B68A7
S11346001800BD4680BDC04688F0FF1F60630000EF
S1134610C06700006C63000080B582B000AFFFF794
S1134620E1FF03007B607B68002B01D17B6840E0E5
S1134630224B1B78DBB2DB08DAB2FB1C07210A40F1
S11346401A70FB1C1B787A68DA4013007B601B4BE2
S11346505B78DBB21B09DAB2BB1C03210A401A7077
S1134660BB1C1B78002B23D0FB1C1B78072B14D0FE
S11346701BDC052B02DC002B03DA16E0062B04D02E
S113468013E07B685B097B6012E07B6814211800EF
S1134690FBF77EFF03007B600AE07B680C211800B7
S11346A0FBF776FF03007B6002E000237B60C046DB
S11346B07B681800BD4602B080BDC046004006407D
S11346C080B500AF0B4B9B79DBB21A00012313407A
S11346D002D1094B1B6809E0084B1A68054B1B7A89
S11346E0DBB25B0807210B40DA4013001800BD461B
S11346F080BDC0460040064008F0FF1F0CF0FF1FBD
S113470080B500AF074B9B79DBB21A00102313402E
S113471003D1FFF781FF030001E0034B1B6818007E
S1134720BD4680BD0040064008F0FF1F80B500AFC5
S1134730FFF758FF03001800BD4680BD80B584B064
S113474000AF78607B680E4A934204D80F23FB18AD
S113475000221A700CE07B680A4A934204D80F23A3
S1134760FB1801221A7003E00F23FB1802221A70AF
S11347700F23FB181B781800BD4604B080BDC0464B
S11347809798000000127A0080B500AF0B4B1B789D
S1134790DBB25BB2002B0DDA094B1B68002B06D190
S11347A0084B094AAA2149000848FFF783FA044B39
S11347B01B6800E000231800BD4680BD0050064081
S11347C088F0FF1F60630000D86700006C6300007E
S11347D080B582B000AF1B4B1B689B0C03221340B7
S11347E0032B22D025D8002B02D0022B0ED020E0A0
S11347F0FFF7CAFF020080231B029A4203D18023E1
S11348001B027B6018E000237B6015E00E4B1B68E5
S1134810002B06D10D4B0E4AB42149000D48FFF779
S113482049FA094B1B687B6006E0FA239B007B6016
S113483002E000237B60C0467B681800BD4602B0DE
S113484080BDC046007004408CF0FF1FCC630000A4
S1134850F06700006C63000080B582B000AF0F4ABF
S11348600F4BD3581B0C0122134002D0012B05D04F
S11348700CE000F019F903007B600AE000F082F913
S113488003007B607B685B087B6002E000237B6045
S1134890C0467B681800BD4602B080BD007004406D
S11348A00410000080B500AF00F0C2F8064A074BC0
S11348B0D3581B0F0F22134001331900FBF768FE76
S11348C003001800BD4680BD007004404410000081
S11348D080B584B000AF0200FB1D1A70FB1D1B786D
S11348E00D2B00D172E000DD79E00B2B00D168E0E4
S11348F000DD74E00A2B00D15EE000DD6FE0092BDF
S113490055D000DD6BE0082B4CD000DD67E0072BB1
S113491000D15FE000DD62E0062B3ED05FDC052BBA
S113492036D05CDC042B17D059DC012B02DC002BC5
S113493003DA54E0022B0FD051E000F079F82C4A4E
S11349402C4BD3581B0F0F22134001331900FBF7D4
S11349501FFE0300FB6045E000F06AF8244A254B83
S1134960D3581B0F0F22134001331900FBF710FE1D
S11349700300FB601E4A1F4BD3581B0C0722134035
S113498001331900F868FBF703FE0300FB6029E01C
S1134990FFF762FF0300FB6024E0FFF719FF030049
S11349A0FB601FE000F0D6F80300FB601AE000F0A3
S11349B0BDF80300FB6015E000F076F80300FB602F
S11349C010E000F0DFF80300FB600BE0FA239B002B
S11349D0FB6007E0FFF7D8FE0300FB6002E0002362
S11349E0FB60C046FB681800BD4604B080BDC046ED
S11349F0007004404410000080B582B000AF7860BD
S1134A0009497B685B68094A8B507B681B781800EE
S1134A10FFF78CFD7B685B781800FFF76DFDC046DF
S1134A20BD4602B080BDC046007004404410000082
S1134A3080B582B000AF1B4B9B79DBB29B0803228D
S1134A4013403B603B68032B0FD03B68032B20D8FB
S1134A503B68022B18D03B68022B1AD83B68002B0A
S1134A6008D03B68012B0AD013E000F08BF8030058
S1134A707B6011E000F018F803007B600CE0FFF7A6
S1134A801FFE03007B6007E0FFF7ACFD03007B60C3
S1134A9002E000237B60C0467B681800BD4602B07C
S1134AA080BDC0460040064080B582B000AF1D4BBB
S1134AB05B78DBB21A000223134006D1194B9B79B1
S1134AC0DBB21A002023134001D0002326E0FFF7B5
S1134AD017FE03007B607B68002B01D17B681DE01F
S1134AE0104BDB78DBB25B09DAB2FB1C03210A4012
S1134AF01A700C4BDB78DBB2DB09DAB2BB1C012188
S1134B000A401A70FB1C1978BB1C1A78064B490022
S1134B108A185200D35A1A007B6853431800BD46C2
S1134B2002B080BD004006400868000080B500AFB8
S1134B30074B1B78DBB21A000223134001D1002378
S1134B4002E0FFF7BDFD03001800BD4680BDC0466E
S1134B500040064080B582B000AFFFF7D1FD0300EE
S1134B607B607B68002B08D0FFF762FF0300DB0843
S1134B707A689A4201D87B6800E000231800BD4699
S1134B8002B080BD80B582B000AF194B9B79DBB217
S1134B901A004023134001D1002325E0FFF7C6FD8E
S1134BA003007B607B68002B05D1124B124A13492A
S1134BB01348FFF77FF80E4B1B79DBB21A001F2353
S1134BC01340013319007868FBF7E2FC03007B60B3
S1134BD0074B5B79DBB21A001F23134018331A000A
S1134BE07B6853437B607B681800BD4602B080BD80
S1134BF000400640DC630000186800005502000015
S1134C006C63000080B582B000AF0200FB1D1A7017
S1134C1000231800BD4602B080BD000090B585B0E9
S1134C2000AF040008001100FB1D221C1A70BB1DFC
S1134C30021C1A707B1D0A1C1A70404B9B79DBB254
S1134C409B0803221340FB603C4B9B79DAB20B2098
S1134C503B1801210A401A70384B1B7ADBB25B08FF
S1134C60DAB20A243B1907210A401A707A1D3B194B
S1134C7012781B789A422ED03B181B78012B19D13D
S1134C80FB68012B06D02D4B1B78DBB21A000223E4
S1134C9013400FD0294B5B78DBB2284A01218B43A8
S1134CA0DBB25370C046254B9B79DBB21A0001235B
S1134CB01340F8D1214B1B7ADBB22F229343DAB293
S1134CC07B1D1B78DB18DBB20E210B40DBB21B49CA
S1134CD01343DBB20B72194B5B78DBB201229343B3
S1134CE0DAB2BB1D1B7801210B40DBB2134913431D
S1134CF0DBB24B70114B1B78DBB203229343DAB265
S1134D000E49FB1D1B781343DBB20B70FB68012BB0
S1134D1004D0FB1D1B78022213400AD0C046074B67
S1134D209B79DBB21A0001231A40BB1D1B789A42FF
S1134D30F5D100231800BD4605B090BD00400640E3
S1134D4080B584B000AF78607B68002B06D1204B1F
S1134D50204ABE2189002048FEF7ACFF0F203B18F3
S1134D6000221A707B685B781F221340D9B23B186B
S1134D703A1812780A431A70184A3B181B781371B0
S1134D80164B5B79DBB21F229343DAB27B689B78C4
S1134D901F210B40DBB211491343DBB24B710F4BA4
S1134DA01B79DAB27B681B781343DBB20B4A4021D0
S1134DB00B43DBB21371C046084B9B79DBB21A007C
S1134DC040231340F8D0C046C046BD4604B080BD61
S1134DD0E86300002C6800006C630000004006409B
S1134DE0B0B584B000AF78607B681B680F257C1970
S1134DF01800FFF7A3FC030023707B681B791B4A90
S1134E0019001000FFF7CDFB7B680633174A190021
S1134E101000FFF7A7FB164B5B78DBB23C229343F1
S1134E20DAB27B191B781B01DBB230210B40DBB2F9
S1134E301343DAB27B685B790D491343DBB24B70E1
S1134E407B685B79002B0DD0084B1B78DBB25BB21F
S1134E50002B07DAC046064B9B79DBB21A0002230B
S1134E601340F8D0C046BD4604B0B0BD0050064063
S1134E700040064080B582B000AF02003960FB1DDF
S1134E801A703B68002B05D1254B264A2649274832
S1134E90FEF710FF264B5B78DBB2254A02218B43D9
S1134EA0DBB25370224B1B78DBB23B221340DBB2E4
S1134EB01F49802252421343DBB20B70C0461C4B85
S1134EC09B79DBB21A001C231340082BF7D1184B33
S1134ED05B79DBB2164A40218B43DBB25371C04687
S1134EE0134B9B79DBB21A0020231340F8D13B68A3
S1134EF01800FFF725FF0E4B5B79DBB20C4A40210B
S1134F000B43DBB25371C046094B9B79DBB21A00E9
S1134F1020231340F8D000231800BD4602B080BD02
S1134F20E863000040680000640500006C63000052
S1134F300040064080B582B000AF3A60FB1D021C01
S1134F401A70BB1D0A1C1A703B68002B05D1144B48
S1134F50144A15491548FEF7ADFEFB1D1B781800D1
S1134F60FFF750FE3A68BB1D1B7811001800FFF7CD
S1134F7081FF0F4B1B78DBB20D4A3F210B40DBB2A4
S1134F801370C0460A4B9B79DBB21A000C23134002
S1134F900C2BF7D100231800BD4602B080BDC046DB
S1134FA0E8630000546800000D0600006C63000014
S1134FB000400640074B10B50400002B02D000212E
S1134FC000E000BF044B1B68002B00D09847200072
S1134FD000F0BAFB0000000090F0FF1F03008218ED
S1134FE0934200D1704719700133F9E770B5002678
S1134FF00C4C0D4D641BA410A64209D1002601F0EF
S113500071FC0A4C0A4D641BA410A64205D170BD64
S1135010B300EB5898470136EEE7B300EB589847D6
S11350200136F2E704690000046900000869000021
S113503004690000F0B545465746DE464E46E0B5E5
S113504004000D0090469A4683B08B422ED82BD094
S113505051464046FBF750FC290006002000FBF7B0
S11350604BFC331A9946203B31D442469A409B4626
S1135070170043464A4693401E00AF4237D8AF421A
S113508000D175E05A46A41BBD41002A00DA72E043
S113509001230020002193400090019101930123FA
S11350A04A469340009326E08242D1D9002200234D
S11350B0009201930C9B002B00D030C300980199FF
S11350C003B0F0BCBB46B246A946A046F0BD4A4672
S11350D09B46202341469B1AD9400B0051469140E0
S11350E04A465F18434693401E00AF42C7D9002288
S11350F000230092019349460029DBD0FB079C461C
S1135100720862440E007B080EE0AB4201D1A24259
S11351100CD8A41A9D41012024196D410021013E9F
S113512024184D41002E06D0AB42EED9013E24197D
S11351306D41002EF8D1009801995A460019694131
S1135140002A23DB2B004C46D3402A005E46E24073
S11351501C001500002E29DB1F00B7403B00260071
S11351604F46BE403200801A994100900191A1E758
S1135170A342BCD886E74A46202300219B1A00227A
S1135180009101920122DA40019288E74E462023E1
S11351902A009B1B9A402300F3404C46D3182A0054
S11351A05E46E2401C001500002ED5DA4F4620234F
S11351B02600DB1BDE40B4461600BE4033006344C9
S11351C0CDE7C046F0B54F464646D6464502C0B583
S11351D0C30F470099460E1C6D0A3F0E5AD0FF2F8D
S11351E021D08023ED00DB041D43002398469A461A
S11351F07F3F74027300640A1B0EF60F002B1FD04E
S1135200FF2B42D080220020E400D20414437F3BD1
S11352104A46FF1A434672400F2B00D99CE071495D
S11352209B00CB589F46002D59D108239846063B36
S113523074029A467300640A1B0EF60F002BDFD12A
S1135240002C3BD101234A464146724019430E29A2
S113525018D86548890041588F465346022B00D11F
S1135260B9E0032B6ED04A462C00012B40D100201C
S11352700024C0052043D2071043E0BCBA46B1461F
S1135280A846F0BDFF200024F3E7002C20D1022320
S1135290FF3FD8E7002D05D104239846033B0027A0
S11352A09A46A6E72800FBF709FB7627431F9D4093
S11352B000237F4298469A463F1A9AE72000FBF75C
S11352C0FDFA431F9C4076235B421B1A00209FE794
S11352D0032342461A4390460320FC3398E70C23E9
S11352E09846093BFF279A4683E703282CD03200CF
S11352F038007F30002847DD630704D00F232340A4
S1135300042B00D00434230103D53800374B8030FC
S11353101C40FE28B6DCA401640AC0B2A9E78024BC
S11353200022FF20E403A4E78023DB031D4201D015
S11353301C420BD08024E4032C4364024A46FF2021
S1135340640A96E74E462C008023DB031C43640268
S11353503200FF20640A8CE76D01600185422ED281
S11353601B230024013F0126290064006D0000294D
S113537001DB854201D32D1A3443013B002BF3D1C9
S11353806B1E9D412C43B3E703001A3300DA6EE72A
S1135390012321001B1A9E37D940BC400B00611E1B
S11353A08C412343590704D00F211940042900D00C
S11353B00433590113D49B0100205C0A59E71A23D2
S11353C001242D1ACFE7981E43425841404232002F
S11353D00024C0B24DE74A46FF20002449E70120DB
S11353E0002446E768680000A8680000FFFFFFF794
S11353F0F0B54646D6464F464402C0B5C30F4600F4
S113540098460D1C640A360E00D1CBE0FF2E6ED0F8
S11354108023E400DB041C43002399469A467F3E24
S11354206F026B007F0A1B0EED0F002B6DD0FF2B5C
S113543000D1A6E07F3BF6184B460A2B00DD82E044
S11354408023FF00DB041F4343466B4098464B46D2
S11354500022022B0FDD494601238B40A621C900FF
S11354600B4200D06FE0902189000B4200D0D3E0C2
S11354708821194264D1200C2404240C21003B0C03
S11354803F043F0C79435C4347435843E4190B0CF6
S11354901B199F4202D980225202801809041A045F
S11354A0090C52189401611E8C411B0C920E1B189E
S11354B014439B011C431B0100D5CDE030007F3019
S11354C0002800DCAEE063070BD00F23320023403A
S11354D0042B06D00434230103D580321000684B1A
S11354E01C40FE2866DCA3015B0AC0B21EE0002C4F
S11354F000D08BE008239946063B6F029A466B0066
S11355007F0A1B0EED0F002B91D1002F61D14A466B
S113551001231A4391460A2A15DC43466B409846F8
S11355204B460122022B96DC00200023C0051843C1
S11355304346DD072843E0BCBA46B146A846F0BD61
S1135540A8463C0092465346022B33D0032B11D07D
S1135550012BE9D030008030721C002863DD630722
S1135560B9D00F232340042BB4D1B4E70F2A78D049
S1135570A8463C008023DB0323435B02FF205B0A35
S1135580D4E7FF36002F2FD102234A4613430A2BB8
S1135590D9DC42466A4090464A46002A0AD09946D7
S11355A0022258E7002C08D104239946033B002625
S11355B09A4635E7FF200023B8E72000FBF77EF981
S11355C07626431F9C400023764299469A46361A13
S11355D026E73800FBF772F94B46361A763E0A2B5B
S11355E0B1DC053887402FE703234A461A431300EA
S11355F00A2ABBDC42466A40904601229A4088212E
S113560013000322194200D135E799E70C23994688
S1135610093BFF269A4603E7002398468023FF2090
S1135620DB0383E7320003001A3300DA7CE79E329F
S11356300123210094401B1AD940621E94410C435B
S1135640630704D00F232340042B00D004346301E8
S113565011D50120002369E7012362081C4014438B
S113566078E78023DB031C4284D01F4282D1A84602
S1135670FF203B435AE7A30100205B0A56E7C046DC
S1135680FFFFFFF741024200C30F490A0020120E38
S11356907E2A03DD9D2A02DD094A9818704780207E
S11356A000040143952A07DC9620821AD14048421F
S11356B0002BF3D10800F1E7963A9140F7E7C04692
S11356C0FFFFFF7F10B504000020002C0ED0200047
S11356D0FBF7F4F803009E20C01A072B09DD082B02
S11356E02CD0083B9C406402640AC0B2C00520432D
S11356F010BD042B16DD052B01D05A1F9440114A0E
S1135700224061070AD00F212140042906D0043227
S1135710510103D59F200B49C01A0A409201540A33
S1135720C0B2E3E71A0021001B3291400A00511E67
S11357308A410521C91ACC401443E0E7640296204B
S1135740640AD3E7FFFFFFFBFEE7C046696E73748C
S1135750616E6365203C2041525241595F53495A5E
S11357604528735F6C7073636942617365732900C4
S11357702F55736572732F6173686F6B70617564F5
S1135780656C617072696C2F494545452050726F94
S11357906A656374732F53444B5F325F325F305FCB
S11357A04652444D2D4B4C32365A2F64657669630C
S11357B065732F4D4B4C32365A342F6472697665BB
S11357C072732F66736C5F6C707363692E63000071
S11357D068616E646C6500006461746100000000BF
S11357E0636F6E6669670000636F6E6669672D3E5E
S11357F062617564526174655F42707300000000F9
S113580062617564526174655F42707300000000E8
S113581072696E67427566666572000078666572C5
S113582000000000786665722D3E646174615369FE
S11358307A650000786665722D3E646174610000CB
S1135840636F756E74000000696E7374616E6365D6
S1135850203C20756172744172726179436F756E78
S1135860740000002F55736572732F6173686F6B3A
S113587070617564656C617072696C2F494545454A
S11358802050726F6A656374732F53444B5F325FA9
S1135890325F305F4652444D2D4B4C32365A2F64A2
S11358A06576696365732F4D4B4C32365A342F64D9
S11358B07269766572732F66736C5F756172742E8C
S11358C06300000068616E646C650000636F6E665F
S11358D069670000636F6E6669672D3E6261756477
S11358E0526174655F427073000000006261756408
S11358F0526174655F4270730000000064617461FA
S11359000000000072696E67427566666572000089
S11359107866657200000000786665722D3E6461E9
S1135920746153697A650000786665722D3E64611E
S113593074610000636F756E74000000696E7374A7
S1135940616E6365203C2041525241595F53495A6C
S11359504528735F706974426173657329000000A0
S11359602F55736572732F6173686F6B7061756403
S1135970656C617072696C2F494545452050726FA2
S11359806A656374732F53444B5F325F325F305FD9
S11359904652444D2D4B4C32365A2F64657669631A
S11359A065732F4D4B4C32365A342F6472697665C9
S11359B072732F66736C5F7069742E63000000004D
S11359C0636F6E6669670000696E7374616E636508
S11359D0203C2041525241595F53495A4528735F34
S11359E06770696F42617365732900002F55736591
S11359F072732F6173686F6B70617564656C61702D
S1135A0072696C2F494545452050726F6A6563740D
S1135A10732F53444B5F325F325F305F4652444DC5
S1135A202D4B4C32365A2F646576696365732F4D5E
S1135A304B4C32365A342F647269766572732F6612
S1135A40736C5F6770696F2E63000000636F6E662E
S1135A5069670000696E7374616E6365203C204160
S1135A60525241595F53495A4528735F66677069BA
S1135A706F42617365732900696E7374616E636547
S1135A80203C2074706D4172726179436F756E743D
S1135A90000000002F55736572732F6173686F6B7C
S1135AA070617564656C617072696C2F4945454518
S1135AB02050726F6A656374732F53444B5F325F77
S1135AC0325F305F4652444D2D4B4C32365A2F6470
S1135AD06576696365732F4D4B4C32365A342F64A7
S1135AE07269766572732F66736C5F74706D2E6362
S1135AF000000000636F6E666967000063686E6C87
S1135B00506172616D73000070776D467265715FEC
S1135B10487A00006E756D4F6643686E6C730000C2
S1135B20737263436C6F636B5F487A0063686E6C77
S1135B304E756D626572203C2046534C5F4645416C
S1135B40545552455F54504D5F4348414E4E454C69
S1135B505F434F554E546E286261736529000000FF
S1135B6063686E6C436F756E7420213D202D310087
S1135B70696E7374616E6365203C204152524159D1
S1135B805F53495A4528735F6164633136426173D8
S1135B90657329002F55736572732F6173686F6B7A
S1135BA070617564656C617072696C2F4945454517
S1135BB02050726F6A656374732F53444B5F325F76
S1135BC0325F305F4652444D2D4B4C32365A2F646F
S1135BD06576696365732F4D4B4C32365A342F64A6
S1135BE07269766572732F66736C5F6164633136B4
S1135BF02E6300004E554C4C20213D20636F6E6691
S1135C00696700006368616E6E656C47726F7570DA
S1135C10203C204144435F5343315F434F554E542E
S1135C2000000000696E7374616E6365203C20415E
S1135C30525241595F53495A4528735F693263424E
S1135C4061736573290000002F55736572732F61AA
S1135C5073686F6B70617564656C617072696C2FC9
S1135C60494545452050726F6A656374732F5344E8
S1135C704B5F325F325F305F4652444D2D4B4C32A6
S1135C80365A2F646576696365732F4D4B4C3236F3
S1135C905A342F647269766572732F66736C5F6908
S1135CA032632E63000000006D6173746572436F8C
S1135CB06E66696720262620737263436C6F636B7C
S1135CC05F487A006D6173746572436F6E666967CD
S1135CD000000000786665720000000068616E6470
S1135CE06C65000069326348616E646C6500000095
S1135CF0736C617665436F6E66696700736C617679
S1135D0065436F6E6669672D3E736C6176654164A9
S1135D106472657373203C20736C617665436F6EA7
S1135D206669672D3E75707065724164647265734F
S1135D30730000006368616E6E656C203C204653FE
S1135D404C5F464541545552455F5453495F43485F
S1135D50414E4E454C5F434F554E54002F5573658D
S1135D6072732F6173686F6B70617564656C6170B9
S1135D7072696C2F494545452050726F6A6563749A
S1135D80732F53444B5F325F325F305F4652444D52
S1135D902D4B4C32365A2F646576696365732F4DEB
S1135DA04B4C32365A342F647269766572732F669F
S1135DB0736C5F7473695F76342E68006C6F775F01
S1135DC07468726573686F6C64203C203078464652
S1135DD046465500686967685F7468726573686FE2
S1135DE06C64203C2030784646464655000000004E
S1135DF0636F6E66696720213D204E554C4C000050
S1135E002F55736572732F6173686F6B706175645E
S1135E10656C617072696C2F494545452050726FFD
S1135E206A656374732F53444B5F325F325F305F34
S1135E304652444D2D4B4C32365A2F646576696375
S1135E4065732F4D4B4C32365A342F647269766524
S1135E5072732F66736C5F7473695F76342E63009C
S1135E6063616C4275666620213D204E554C4C00A2
S1135E70636F6E66696700002F55736572732F61D7
S1135E8073686F6B70617564656C617072696C2F97
S1135E90494545452050726F6A656374732F4652B5
S1135EA0444D5F4B4C32365A5F50726F6A6563746F
S1135EB0732F50315F53656E736F725F4461736803
S1135EC0626F6172642F64656D6F5F636F64652FC9
S1135ED030375F66756C6C5F64617368626F6172A2
S1135EE0645F7265666572656E63652F61726D6766
S1135EF063632F2E2E2F2E2E2F2E2E2F2E2E2F2E4F
S1135F002E2F53444B5F325F325F305F4652444D15
S1135F102D4B4C32365A2F646576696365732F4D69
S1135F204B4C32365A342F647269766572732F661D
S1135F30736C5F7069742E68000000006368616EA2
S1135F406E656C47726F7570203C204144435F520C
S1135F505F434F554E5400002F55736572732F6184
S1135F6073686F6B70617564656C617072696C2FB6
S1135F70494545452050726F6A656374732F4652D4
S1135F80444D5F4B4C32365A5F50726F6A6563748E
S1135F90732F50315F53656E736F725F4461736822
S1135FA0626F6172642F64656D6F5F636F64652FE8
S1135FB030375F66756C6C5F64617368626F6172C1
S1135FC0645F7265666572656E63652F61726D6785
S1135FD063632F2E2E2F2E2E2F2E2E2F2E2E2F2E6E
S1135FE02E2F53444B5F325F325F305F4652444D35
S1135FF02D4B4C32365A2F646576696365732F4D89
S11360004B4C32365A342F647269766572732F663C
S1136010736C5F61646331362E6800006368616E7F
S11360206E656C203C2046534C5F464541545552A6
